{
	"counter1.sol": {
		"Counter": {
			"abi": [
				{
					"constant": false,
					"inputs": [],
					"name": "decrement",
					"outputs": [],
					"payable": false,
					"stateMutability": "nonpayable",
					"type": "function"
				},
				{
					"constant": true,
					"inputs": [],
					"name": "getCount",
					"outputs": [
						{
							"name": "",
							"type": "uint256"
						}
					],
					"payable": false,
					"stateMutability": "view",
					"type": "function"
				},
				{
					"constant": false,
					"inputs": [],
					"name": "increment",
					"outputs": [],
					"payable": false,
					"stateMutability": "nonpayable",
					"type": "function"
				},
				{
					"inputs": [],
					"payable": false,
					"stateMutability": "nonpayable",
					"type": "constructor"
				},
				{
					"anonymous": false,
					"inputs": [
						{
							"indexed": false,
							"name": "value",
							"type": "uint256"
						}
					],
					"name": "Increment",
					"type": "event"
				},
				{
					"anonymous": false,
					"inputs": [
						{
							"indexed": false,
							"name": "value",
							"type": "uint256"
						}
					],
					"name": "Decrement",
					"type": "event"
				}
			],
			"devdoc": {
				"methods": {}
			},
			"evm": {
				"assembly": "    /* \"counter1.sol\":26:473  contract Counter{\r... */\n  mstore(0x40, 0x80)\n    /* \"counter1.sol\":62:63  0 */\n  0x0\n    /* \"counter1.sol\":49:63  uint count = 0 */\n  dup1\n  sstore\n    /* \"counter1.sol\":146:192  constructor() public{\r... */\n  callvalue\n    /* \"--CODEGEN--\":8:17   */\n  dup1\n    /* \"--CODEGEN--\":5:7   */\n  iszero\n  tag_1\n  jumpi\n    /* \"--CODEGEN--\":30:31   */\n  0x0\n    /* \"--CODEGEN--\":27:28   */\n  dup1\n    /* \"--CODEGEN--\":20:32   */\n  revert\n    /* \"--CODEGEN--\":5:7   */\ntag_1:\n    /* \"counter1.sol\":146:192  constructor() public{\r... */\n  pop\n    /* \"counter1.sol\":183:184  0 */\n  0x0\n    /* \"counter1.sol\":177:182  count */\n  dup1\n    /* \"counter1.sol\":177:184  count=0 */\n  dup2\n  swap1\n  sstore\n  pop\n    /* \"counter1.sol\":26:473  contract Counter{\r... */\n  dataSize(sub_0)\n  dup1\n  dataOffset(sub_0)\n  0x0\n  codecopy\n  0x0\n  return\nstop\n\nsub_0: assembly {\n        /* \"counter1.sol\":26:473  contract Counter{\r... */\n      mstore(0x40, 0x80)\n      jumpi(tag_1, lt(calldatasize, 0x4))\n      calldataload(0x0)\n      0x100000000000000000000000000000000000000000000000000000000\n      swap1\n      div\n      dup1\n      0x2baeceb7\n      eq\n      tag_2\n      jumpi\n      dup1\n      0xa87d942c\n      eq\n      tag_3\n      jumpi\n      dup1\n      0xd09de08a\n      eq\n      tag_4\n      jumpi\n    tag_1:\n      0x0\n      dup1\n      revert\n        /* \"counter1.sol\":381:470  function decrement() public{\r... */\n    tag_2:\n      callvalue\n        /* \"--CODEGEN--\":8:17   */\n      dup1\n        /* \"--CODEGEN--\":5:7   */\n      iszero\n      tag_5\n      jumpi\n        /* \"--CODEGEN--\":30:31   */\n      0x0\n        /* \"--CODEGEN--\":27:28   */\n      dup1\n        /* \"--CODEGEN--\":20:32   */\n      revert\n        /* \"--CODEGEN--\":5:7   */\n    tag_5:\n        /* \"counter1.sol\":381:470  function decrement() public{\r... */\n      pop\n      tag_6\n      tag_7\n      jump\t// in\n    tag_6:\n      stop\n        /* \"counter1.sol\":200:276  function getCount() view public returns(uint){\r... */\n    tag_3:\n      callvalue\n        /* \"--CODEGEN--\":8:17   */\n      dup1\n        /* \"--CODEGEN--\":5:7   */\n      iszero\n      tag_8\n      jumpi\n        /* \"--CODEGEN--\":30:31   */\n      0x0\n        /* \"--CODEGEN--\":27:28   */\n      dup1\n        /* \"--CODEGEN--\":20:32   */\n      revert\n        /* \"--CODEGEN--\":5:7   */\n    tag_8:\n        /* \"counter1.sol\":200:276  function getCount() view public returns(uint){\r... */\n      pop\n      tag_9\n      tag_10\n      jump\t// in\n    tag_9:\n      mload(0x40)\n      dup1\n      dup3\n      dup2\n      mstore\n      0x20\n      add\n      swap2\n      pop\n      pop\n      mload(0x40)\n      dup1\n      swap2\n      sub\n      swap1\n      return\n        /* \"counter1.sol\":283:372  function increment() public{\r... */\n    tag_4:\n      callvalue\n        /* \"--CODEGEN--\":8:17   */\n      dup1\n        /* \"--CODEGEN--\":5:7   */\n      iszero\n      tag_11\n      jumpi\n        /* \"--CODEGEN--\":30:31   */\n      0x0\n        /* \"--CODEGEN--\":27:28   */\n      dup1\n        /* \"--CODEGEN--\":20:32   */\n      revert\n        /* \"--CODEGEN--\":5:7   */\n    tag_11:\n        /* \"counter1.sol\":283:372  function increment() public{\r... */\n      pop\n      tag_12\n      tag_13\n      jump\t// in\n    tag_12:\n      stop\n        /* \"counter1.sol\":381:470  function decrement() public{\r... */\n    tag_7:\n        /* \"counter1.sol\":427:428  1 */\n      0x1\n        /* \"counter1.sol\":420:425  count */\n      0x0\n      dup1\n        /* \"counter1.sol\":420:428  count-=1 */\n      dup3\n      dup3\n      sload\n      sub\n      swap3\n      pop\n      pop\n      dup2\n      swap1\n      sstore\n      pop\n        /* \"counter1.sol\":445:461  Decrement(count) */\n      0x32814a5bdfd1b8c3d76c49c54e043d6e8aa93d197a09e16599b567135503f748\n        /* \"counter1.sol\":455:460  count */\n      sload(0x0)\n        /* \"counter1.sol\":445:461  Decrement(count) */\n      mload(0x40)\n      dup1\n      dup3\n      dup2\n      mstore\n      0x20\n      add\n      swap2\n      pop\n      pop\n      mload(0x40)\n      dup1\n      swap2\n      sub\n      swap1\n      log1\n        /* \"counter1.sol\":381:470  function decrement() public{\r... */\n      jump\t// out\n        /* \"counter1.sol\":200:276  function getCount() view public returns(uint){\r... */\n    tag_10:\n        /* \"counter1.sol\":240:244  uint */\n      0x0\n        /* \"counter1.sol\":263:268  count */\n      dup1\n      sload\n        /* \"counter1.sol\":256:268  return count */\n      swap1\n      pop\n        /* \"counter1.sol\":200:276  function getCount() view public returns(uint){\r... */\n      swap1\n      jump\t// out\n        /* \"counter1.sol\":283:372  function increment() public{\r... */\n    tag_13:\n        /* \"counter1.sol\":330:331  1 */\n      0x1\n        /* \"counter1.sol\":322:327  count */\n      0x0\n      dup1\n        /* \"counter1.sol\":322:331  count +=1 */\n      dup3\n      dup3\n      sload\n      add\n      swap3\n      pop\n      pop\n      dup2\n      swap1\n      sstore\n      pop\n        /* \"counter1.sol\":347:363  Increment(count) */\n      0x51af157c2eee40f68107a47a49c32fbbeb0a3c9e5cd37aa56e88e6be92368a81\n        /* \"counter1.sol\":357:362  count */\n      sload(0x0)\n        /* \"counter1.sol\":347:363  Increment(count) */\n      mload(0x40)\n      dup1\n      dup3\n      dup2\n      mstore\n      0x20\n      add\n      swap2\n      pop\n      pop\n      mload(0x40)\n      dup1\n      swap2\n      sub\n      swap1\n      log1\n        /* \"counter1.sol\":283:372  function increment() public{\r... */\n      jump\t// out\n\n    auxdata: 0xa165627a7a7230582020d7684b0a7fdaf4bd4d45ada7238d72ed6e7b8fcda8d13a0e924681d44b25440029\n}\n",
				"bytecode": {
					"linkReferences": {},
					"object": "60806040526000805534801561001457600080fd5b506000808190555061017a8061002b6000396000f3fe608060405260043610610051576000357c0100000000000000000000000000000000000000000000000000000000900480632baeceb714610056578063a87d942c1461006d578063d09de08a14610098575b600080fd5b34801561006257600080fd5b5061006b6100af565b005b34801561007957600080fd5b506100826100fa565b6040518082815260200191505060405180910390f35b3480156100a457600080fd5b506100ad610103565b005b600160008082825403925050819055507f32814a5bdfd1b8c3d76c49c54e043d6e8aa93d197a09e16599b567135503f7486000546040518082815260200191505060405180910390a1565b60008054905090565b600160008082825401925050819055507f51af157c2eee40f68107a47a49c32fbbeb0a3c9e5cd37aa56e88e6be92368a816000546040518082815260200191505060405180910390a156fea165627a7a7230582020d7684b0a7fdaf4bd4d45ada7238d72ed6e7b8fcda8d13a0e924681d44b25440029",
					"opcodes": "PUSH1 0x80 PUSH1 0x40 MSTORE PUSH1 0x0 DUP1 SSTORE CALLVALUE DUP1 ISZERO PUSH2 0x14 JUMPI PUSH1 0x0 DUP1 REVERT JUMPDEST POP PUSH1 0x0 DUP1 DUP2 SWAP1 SSTORE POP PUSH2 0x17A DUP1 PUSH2 0x2B PUSH1 0x0 CODECOPY PUSH1 0x0 RETURN INVALID PUSH1 0x80 PUSH1 0x40 MSTORE PUSH1 0x4 CALLDATASIZE LT PUSH2 0x51 JUMPI PUSH1 0x0 CALLDATALOAD PUSH29 0x100000000000000000000000000000000000000000000000000000000 SWAP1 DIV DUP1 PUSH4 0x2BAECEB7 EQ PUSH2 0x56 JUMPI DUP1 PUSH4 0xA87D942C EQ PUSH2 0x6D JUMPI DUP1 PUSH4 0xD09DE08A EQ PUSH2 0x98 JUMPI JUMPDEST PUSH1 0x0 DUP1 REVERT JUMPDEST CALLVALUE DUP1 ISZERO PUSH2 0x62 JUMPI PUSH1 0x0 DUP1 REVERT JUMPDEST POP PUSH2 0x6B PUSH2 0xAF JUMP JUMPDEST STOP JUMPDEST CALLVALUE DUP1 ISZERO PUSH2 0x79 JUMPI PUSH1 0x0 DUP1 REVERT JUMPDEST POP PUSH2 0x82 PUSH2 0xFA JUMP JUMPDEST PUSH1 0x40 MLOAD DUP1 DUP3 DUP2 MSTORE PUSH1 0x20 ADD SWAP2 POP POP PUSH1 0x40 MLOAD DUP1 SWAP2 SUB SWAP1 RETURN JUMPDEST CALLVALUE DUP1 ISZERO PUSH2 0xA4 JUMPI PUSH1 0x0 DUP1 REVERT JUMPDEST POP PUSH2 0xAD PUSH2 0x103 JUMP JUMPDEST STOP JUMPDEST PUSH1 0x1 PUSH1 0x0 DUP1 DUP3 DUP3 SLOAD SUB SWAP3 POP POP DUP2 SWAP1 SSTORE POP PUSH32 0x32814A5BDFD1B8C3D76C49C54E043D6E8AA93D197A09E16599B567135503F748 PUSH1 0x0 SLOAD PUSH1 0x40 MLOAD DUP1 DUP3 DUP2 MSTORE PUSH1 0x20 ADD SWAP2 POP POP PUSH1 0x40 MLOAD DUP1 SWAP2 SUB SWAP1 LOG1 JUMP JUMPDEST PUSH1 0x0 DUP1 SLOAD SWAP1 POP SWAP1 JUMP JUMPDEST PUSH1 0x1 PUSH1 0x0 DUP1 DUP3 DUP3 SLOAD ADD SWAP3 POP POP DUP2 SWAP1 SSTORE POP PUSH32 0x51AF157C2EEE40F68107A47A49C32FBBEB0A3C9E5CD37AA56E88E6BE92368A81 PUSH1 0x0 SLOAD PUSH1 0x40 MLOAD DUP1 DUP3 DUP2 MSTORE PUSH1 0x20 ADD SWAP2 POP POP PUSH1 0x40 MLOAD DUP1 SWAP2 SUB SWAP1 LOG1 JUMP INVALID LOG1 PUSH6 0x627A7A723058 KECCAK256 KECCAK256 0xd7 PUSH9 0x4B0A7FDAF4BD4D45AD 0xa7 0x23 DUP14 PUSH19 0xED6E7B8FCDA8D13A0E924681D44B2544002900 "
				},
				"gasEstimates": {
					"creation": {
						"codeDepositCost": "75600",
						"executionCost": "10143",
						"totalCost": "85743"
					},
					"external": {
						"decrement()": "21627",
						"getCount()": "418",
						"increment()": "21671"
					}
				},
				"methodIdentifiers": {
					"decrement()": "2baeceb7",
					"getCount()": "a87d942c",
					"increment()": "d09de08a"
				}
			},
			"userdoc": {
				"methods": {}
			}
		}
	}
}